:0300000002001EDD
:0C001E00787FE4F6D8FD75810F020065C4
:10000300010E01010F01020A0000020C00000108A9
:0400130000010900DF
:1000DD001201025015A2B1E433F50F6006E50E7062
:1000ED0002D28E850F0EC2A080EB30B104D2A0805B
:0500FD00F9C2A080F52E
:10010200438910750A00750BD8750C00750DF085C2
:0D0112000B8D850D8BD2ABD2AFC28ED322E8
:03001B000200AA36
:0400AA00C0E0C0D022
:1000AE00850B8D850D8B0509C3E509940A74809423
:1000BE008040077509000508D2A0C3E508940374B3
:0A00CE008094804005C28E75080082
:0500D800D0D0D0E032A1
:10002A000200DDE493A3F8E493A34003F68001F20F
:10003A0008DFF48029E493A3F85407240CC8C333D7
:10004A00C4540F4420C8834004F456800146F6DFA6
:10005A00E4800B0102040810204080900003E47E33
:10006A00019360BCA3FF543F30E509541FFEE4939B
:10007A00A360010ECF54C025E060A840B8E493A362
:10008A00FAE493A3F8E493A3C8C582C8CAC583CA8D
:10009A00F0A3C8C582C8CAC583CADFE9DEE780BE45
:0100170000E8
:00000001FF
